:020000040800F2
:100000000000052035170008D1150008D315000899
:10001000D5150008D7150008D91500080000000004
:10002000000000000000000000000000DB150008D8
:10003000DD15000800000000DF150008E1150008CC
:100040008517000885170008851700088517000820
:100050008517000885170008851700088517000810
:100060008517000885170008851700088517000800
:1000700085170008851700088517000885170008F0
:1000800085170008851700088517000885170008E0
:1000900085170008851700088517000885170008D0
:1000A00085170008851700088517000885170008C0
:1000B00085170008851700088517000885170008B0
:1000C00085170008851700088517000885170008A0
:1000D00085170008E915000885170008851700082E
:1000E0008517000885170008851700088517000880
:1000F0008517000885170008851700088517000870
:10010000851700088517000885170008851700085F
:10011000851700088517000885170008851700084F
:10012000851700088517000885170008851700083F
:10013000851700088517000885170008851700082F
:10014000851700088517000885170008851700081F
:10015000851700088517000885170008851700080F
:1001600085170008851700088517000885170008FF
:100170008517000885170008851700080000000093
:1001800085170008851700088517000885170008DF
:1001900085170008851700088517000885170008CF
:0C01A0008517000885170008000000000B
:1001C00010B5054C237833B9044B13B10448AFF391
:1001D00000800123237010BDB8090020000000003A
:1001E000D89C000808B5034B1BB103490348AFF383
:1001F000008008BD00000000BC090020D89C000859
:1002000053B94AB9002908BF00281CBF4FF0FF317D
:100210004FF0FF3000F074B9ADF1080C6DE904CE79
:1002200000F006F8DDF804E0DDE9022304B07047D1
:100230002DE9F047089E0D4604468846002B4DD117
:100240008A42944668D9B2FA82F252B101FA02F3B4
:10025000C2F1200120FA01F10CFA02FC41EA030884
:1002600094404FEA1C45210CB8FBF5FE1FFA8CF7B1
:1002700005FB1E8341EA03430EFB07F199420BD9AC
:100280001CEB03030EF1FF3080F01E81994240F217
:100290001B81AEF1020E63445B1AA4B2B3FBF5F00E
:1002A00005FB103344EA034400FB07F7A7420AD9D1
:1002B0001CEB040400F1FF3380F00881A74240F2F8
:1002C000058164440238E41B40EA0E4000211EB15F
:1002D000D4400023C6E90043BDE8F0878B4208D92B
:1002E000002E00F0EE800021C6E900050846BDE8BA
:1002F000F087B3FA83F100294AD1AB4202D382429C
:1003000000F2F980841A65EB030301209846002E61
:10031000E2D0C6E90048DFE702B9FFDEB2FA82F2B6
:10032000002A40F09180A1EB0C054FEA1C471FFA10
:100330008CFE0121B5FBF7F307FB1350250C45EAB2
:1003400000450EFB03F0A84208D91CEB050503F19C
:10035000FF3802D2A84200F2CB8043462D1AA4B245
:10036000B5FBF7F007FB105544EA05440EFB00FE11
:10037000A64508D91CEB040400F1FF3502D2A645BE
:1003800000F2BB802846A4EB0E0440EA03409EE73F
:10039000C1F120078B4022FA07FC4CEA030C20FA3B
:1003A00007F405FA01F31C43FD404FEA1C4900FA2B
:1003B00001F3B5FBF9F8200C1FFA8CFE09FB185568
:1003C00040EA054508FB0EF0A84202FA01F20BD9FB
:1003D0001CEB050508F1FF3A80F08880A84240F246
:1003E0008580A8F1020865442D1AA4B2B5FBF9F086
:1003F00009FB105544EA054500FB0EFEAE4508D941
:100400001CEB050500F1FF346CD2AE456AD9023809
:10041000654440EA0840A0FB0294A5EB0E05A54206
:10042000C846A64656D353D05EB1B3EB080265EB7F
:100430000E0505FA07F722FA01F3CD401F43C6E97E
:1004400000750021BDE8F087C2F1200320FA03F116
:100450000CFA02FC25FA03F395400D434FEA1C47C2
:100460001FFA8CFEB3FBF7F107FB11302B0C43EAAC
:10047000004301FB0EF0984204FA02F408D91CEB89
:10048000030301F1FF382FD298422DD9023963447A
:100490001B1AADB2B3FBF7F007FB103345EA034577
:1004A00000FB0EF3AB4208D91CEB050500F1FF3849
:1004B00016D2AB4214D902386544ED1A40EA014124
:1004C00038E73146304607E78646E5E61846FAE65D
:1004D0004B45A9D2B9EB020864EB0C0E0138A3E737
:1004E0004046EAE7204694E74146D1E7D0467BE71D
:1004F000023B654432E7084609E76444023842E7B4
:10050000704700BF00000000000000000000000075
:1005100000000000000000000000000000000000DB
:1005200000000000000000000000000000000000CB
:1005300000000000000000000000000000000000BB
:1005400090F800F06DE9024520F007016FF0000C13
:1005500010F0070491F820F040F049804FF00004BB
:100560006FF00700D1E9002391F840F000F1080096
:1005700082FA4CF2A4FA8CF283FA4CF3A2FA8CF3CE
:100580004BBBD1E9022382FA4CF200F10800A4FA35
:100590008CF283FA4CF3A2FA8CF3E3B9D1E9042389
:1005A00082FA4CF200F10800A4FA8CF283FA4CF3C0
:1005B000A2FA8CF37BB9D1E9062301F1200182FA7A
:1005C0004CF200F10800A4FA8CF283FA4CF3A2FA80
:1005D0008CF3002BC6D0002A04BF04301A4612BA8E
:1005E000B2FA82F2FDE8024500EBD2007047D1E991
:1005F000002304F00305C4F100004FEAC50514F020
:10060000040F91F840F00CFA05F562EA05021CBFF0
:1006100063EA050362464FF00004A9E7000000000A
:1006200001F0FF01102A2BDB10F0070F08D010F8A3
:10063000013B013A8B422DD010F0070F42B3F6D1A7
:10064000F0B441EA012141EA014122F007047FF0C0
:1006500000070023F0E80256083C85EA010586EA17
:10066000010685FA47F5A3FA87F586FA47F6A5FA53
:1006700087F68EB9EED1F0BC01F0FF0102F007025F
:1006800032B110F8013B013A83EA010313B1F8D10A
:100690000020704701387047002D06BF35460338EB
:1006A000073815F0010F07D1013015F4807F02BF24
:1006B000013015F4C03F0130F0BC0138704700BF75
:1006C000844641EA000313F003036DD1403A41D35D
:1006D00051F8043B40F8043B51F8043B40F8043B1C
:1006E00051F8043B40F8043B51F8043B40F8043B0C
:1006F00051F8043B40F8043B51F8043B40F8043BFC
:1007000051F8043B40F8043B51F8043B40F8043BEB
:1007100051F8043B40F8043B51F8043B40F8043BDB
:1007200051F8043B40F8043B51F8043B40F8043BCB
:1007300051F8043B40F8043B51F8043B40F8043BBB
:1007400051F8043B40F8043B51F8043B40F8043BAB
:10075000403ABDD2303211D351F8043B40F8043B4B
:1007600051F8043B40F8043B51F8043B40F8043B8B
:1007700051F8043B40F8043B103AEDD20C3205D35B
:1007800051F8043B40F8043B043AF9D2043208D053
:10079000D2071CBF11F8013B00F8013B01D30B88C5
:1007A00003806046704700BF082A13D38B078DD0A3
:1007B00010F003038AD0C3F10403D21ADB071CBF75
:1007C00011F8013B00F8013B80D331F8023B20F8DF
:1007D000023B7BE7043AD9D3013A11F8013B00F818
:1007E000013BF9D20B7803704B7843708B788370A0
:1007F0006046704781F0004102E000BF83F0004393
:1008000030B54FEA41044FEA430594EA050F08BFAB
:1008100090EA020F1FBF54EA000C55EA020C7FEA6F
:10082000645C7FEA655C00F0E2804FEA5454D4EBEC
:100830005555B8BF6D420CDD2C4480EA020281EAB6
:10084000030382EA000083EA010180EA020281EAEE
:100850000303362D88BF30BD11F0004F4FEA013140
:100860004FF4801C4CEA113102D0404261EB41014F
:1008700013F0004F4FEA03334CEA133302D05242D5
:1008800063EB430394EA050F00F0A780A4F1010491
:10089000D5F1200E0DDB02FA0EFC22FA05F28018CB
:1008A00041F1000103FA0EF2801843FA05F35941B1
:1008B0000EE0A5F120050EF1200E012A03FA0EFC30
:1008C00028BF4CF0020C43FA05F3C01851EBE3715A
:1008D00001F0004507D54FF0000EDCF1000C7EEB77
:1008E00000006EEB0101B1F5801F1BD3B1F5001FB5
:1008F0000CD349085FEA30004FEA3C0C04F10104D4
:100900004FEA445212F5800F80F09A80BCF1004FFC
:1009100008BF5FEA500C50F1000041EB045141EA7E
:10092000050130BD5FEA4C0C404141EB0101013C47
:1009300028BFB1F5801FE9D291F0000F04BF014636
:100940000020B1FA81F308BF2033A3F10B03B3F108
:1009500020020CDA0C3208DD02F1140CC2F10C0298
:1009600001FA0CF021FA02F10CE002F11402D8BFF6
:10097000C2F1200C01FA02F120FA0CFCDCBF41EAC2
:100980000C019040E41AA2BF01EB0451294330BD91
:100990006FEA04041F3C1CDA0C340EDC04F114046E
:1009A000C4F1200220FA04F001FA02F340EA030045
:1009B00021FA04F345EA030130BDC4F10C04C4F18B
:1009C000200220FA02F001FA04F340EA030029466B
:1009D00030BD21FA04F0294630BD94F0000F83F4B5
:1009E000801306BF81F480110134013D4EE77FEA98
:1009F000645C18BF7FEA655C29D094EA050F08BFE4
:100A000090EA020F05D054EA000C04BF19461046C4
:100A100030BD91EA030F1EBF0021002030BD5FEA08
:100A2000545C05D14000494128BF41F0004130BD30
:100A300014F580043CBF01F5801130BD01F0004584
:100A400045F0FE4141F470014FF0000030BD7FEAF7
:100A5000645C1ABF194610467FEA655C1CBF0B46F2
:100A6000024650EA013406BF52EA033591EA030F09
:100A700041F4002130BD00BF90F0000F04BF002101
:100A8000704730B54FF4806404F132044FF0000534
:100A90004FF0000150E700BF90F0000F04BF0021AD
:100AA000704730B54FF4806404F1320410F0004513
:100AB00048BF40424FF000013EE700BF42004FEA0E
:100AC000E2014FEA31014FEA02701FBF12F07F438B
:100AD00093F07F4F81F06051704732F07F4208BF42
:100AE000704793F07F4F04BF41F40021704730B549
:100AF0004FF4607401F0004521F000411CE700BF95
:100B000050EA010208BF704730B54FF000050AE017
:100B100050EA010208BF704730B511F0004502D518
:100B2000404261EB41014FF4806404F132045FEA1A
:100B3000915C3FF4D8AE4FF003025FEADC0C18BFC3
:100B400003325FEADC0C18BF033202EBDC02C2F1B5
:100B5000200300FA03FC20FA02F001FA03FE40EA47
:100B60000E0021FA02F11444BDE600BF70B54FF04B
:100B7000FF0C4CF4E06C1CEA11541DBF1CEA135529
:100B800094EA0C0F95EA0C0F00F0DEF82C4481EA91
:100B9000030621EA4C5123EA4C5350EA013518BFB1
:100BA00052EA033541F4801143F4801338D0A0FB9E
:100BB00002CE4FF00005E1FB02E506F00042E0FB4B
:100BC00003E54FF00006E1FB03569CF0000F18BF51
:100BD0004EF0010EA4F1FF04B6F5007F64F54074F9
:100BE00004D25FEA4E0E6D4146EB060642EAC6218C
:100BF00041EA55514FEAC52040EA5E504FEACE2EF9
:100C0000B4F1FD0C88BFBCF5E06F1ED8BEF1004FFB
:100C100008BF5FEA500E50F1000041EB045170BD77
:100C200006F0004646EA010140EA020081EA0301BB
:100C3000B4EB5C04C2BFD4EB0C0541EA045170BDB7
:100C400041F480114FF0000E013C00F3AB8014F131
:100C5000360FDEBF002001F0004170BDC4F100047A
:100C6000203C35DA0C341BDC04F11404C4F12005FB
:100C700000FA05F320FA04F001FA05F240EA020056
:100C800001F0004221F0004110EBD37021FA04F68C
:100C900042EB06015EEA430E08BF20EAD37070BD46
:100CA000C4F10C04C4F1200500FA04F320FA05F0A5
:100CB00001FA04F240EA020001F0004110EBD370A7
:100CC00041F100015EEA430E08BF20EAD37070BD17
:100CD000C4F1200500FA05F24EEA020E20FA04F3F0
:100CE00001FA05F243EA020321FA04F001F000419F
:100CF00021FA04F220EA020000EBD3705EEA430E10
:100D000008BF20EAD37070BD94F0000F0FD101F03E
:100D10000046400041EB010111F4801F08BF013C77
:100D2000F7D041EA060195F0000F18BF704703F0B5
:100D30000046520043EB030313F4801F08BF013D3C
:100D4000F7D043EA0603704794EA0C0F0CEA1355F8
:100D500018BF95EA0C0F0CD050EA410618BF52EAB2
:100D60004306D1D181EA030101F000414FF00000B8
:100D700070BD50EA410606BF1046194652EA4306C6
:100D800019D094EA0C0F02D150EA013613D195EA3A
:100D90000C0F05D152EA03361CBF104619460AD182
:100DA00081EA030101F0004141F0FE4141F470018C
:100DB0004FF0000070BD41F0FE4141F4780170BD7C
:100DC00070B54FF0FF0C4CF4E06C1CEA11541DBFE1
:100DD0001CEA135594EA0C0F95EA0C0F00F0A7F8E3
:100DE000A4EB050481EA030E52EA03354FEA013110
:100DF00000F088804FEA03334FF0805545EA131323
:100E000043EA12634FEA022245EA111545EA1065EA
:100E10004FEA00260EF000419D4208BF964244F181
:100E2000FD0404F5407402D25B084FEA3202B61AA0
:100E300065EB03055B084FEA32024FF480104FF474
:100E4000002CB6EB020E75EB030E22BFB61A7546E8
:100E500040EA0C005B084FEA3202B6EB020E75EB7B
:100E6000030E22BFB61A754640EA5C005B084FEAE3
:100E70003202B6EB020E75EB030E22BFB61A7546B0
:100E800040EA9C005B084FEA3202B6EB020E75EBBB
:100E9000030E22BFB61A754640EADC0055EA060E7C
:100EA00018D04FEA051545EA16754FEA06164FEABF
:100EB000C30343EA52734FEAC2025FEA1C1CC0D16B
:100EC00011F4801F0BD141EA00014FF000004FF0F8
:100ED000004CB6E711F4801F04BF01430020B4F1B9
:100EE000FD0C88BFBCF5E06F3FF6AFAEB5EB030C71
:100EF00004BFB6EB020C5FEA500C50F1000041EB6E
:100F0000045170BD0EF0004E4EEA113114EB5C043A
:100F1000C2BFD4EB0C0541EA045170BD41F480110D
:100F20004FF0000E013C90E645EA060E8DE60CEA15
:100F3000135594EA0C0F08BF95EA0C0F3FF43BAF32
:100F400094EA0C0F0AD150EA01347FF434AF95EAE9
:100F50000C0F7FF425AF104619462CE795EA0C0FCD
:100F600006D152EA03353FF4FDAE1046194622E79A
:100F700050EA410618BF52EA43067FF4C5AE50EA74
:100F800041047FF40DAF52EA43057FF4EBAE12E764
:100F90004FF0FF3C06E000BF4FF0010C02E000BF45
:100FA0004FF0010C4DF804CD4FEA410C7FEA6C5C28
:100FB0004FEA430C18BF7FEA6C5C1BD001B050EACB
:100FC000410C0CBF52EA430C91EA030F02BF90EAB6
:100FD000020F0020704710F1000F91EA030F58BF75
:100FE000994208BF90422CBFD8176FEAE37040F0D7
:100FF000010070474FEA410C7FEA6C5C02D150EA75
:10100000013C07D14FEA430C7FEA6C5CD6D152EA2F
:10101000033CD3D05DF8040B704700BF84461046F4
:1010200062468C461946634600E000BF01B5FFF7F3
:10103000B7FF002848BF10F1000F01BD4DF808EDC3
:10104000FFF7F4FF0CBF012000205DF808FB00BF94
:101050004DF808EDFFF7EAFF34BF012000205DF8EE
:1010600008FB00BF4DF808EDFFF7E0FF94BF01203B
:1010700000205DF808FB00BF4DF808EDFFF7CEFF3C
:1010800094BF012000205DF808FB00BF4DF808ED7B
:10109000FFF7C4FF34BF012000205DF808FB00BF4C
:1010A0004FEA410C7FEA6C5C02D150EA013C0AD164
:1010B0004FEA430C7FEA6C5C02D152EA033C02D156
:1010C0004FF0000070474FF0010070474FEA4102B7
:1010D00012F5001215D211D56FF47873B3EB62528A
:1010E00012D94FEAC12343F0004343EA505311F0B1
:1010F000004F23FA02F018BF404270474FF0000043
:10110000704750EA013005D111F0004008BF6FF080
:10111000004070474FF00000704700BF30B587B007
:101120000E4BDA6C42F00202DA64DB6C03F002036D
:101130000093009B0425019501230293022303934E
:101140000493074C0DEB0501204600F035FC00220E
:101150002946204600F02AFD07B030BD00100240AD
:1011600000040048F0B58BB0002405940694079461
:10117000089409942A4BDA6C42F00402DA64DA6CBF
:1011800002F004020092009ADA6C42F08002DA6403
:10119000DA6C02F080020192019ADA6C42F01002DD
:1011A000DA64DA6C02F010020292029ADA6C42F00F
:1011B0000802DA64DA6C02F008020392039ADA6C2D
:1011C00042F00102DA64DB6C03F001030493049B38
:1011D000144E01224FF46071304600F0E7FC4FF4EA
:1011E0000053059306940227079705A90E4800F0BF
:1011F000E3FB4FF460730593012506950795089767
:1012000005A9304600F0D8FB4FF4E063059306943F
:10121000079505A9054800F0CFFB0BB0F0BD00BF56
:10122000001002400010004800080048000C004870
:1012300030B589B0164BDA6C42F00402DA64DA6C2D
:1012400002F004020192019ADA6C42F00802DA64B8
:10125000DB6C03F008030293029B4FF4E0630393FB
:1012600000250495022305930324069403A9094845
:1012700000F0A2FB4FF40053039304950123059360
:10128000069403A9044800F097FB09B030BD00BFE5
:1012900000100240000C00480008004870B586B0FD
:1012A0000E4BDA6C42F01002DA64DB6C03F01003D0
:1012B0000093009B4FF460760196012402940394FE
:1012C00002230493064D01A9284600F075FB22462F
:1012D0003146284600F06AFC06B070BD001002409E
:1012E0000010004808B5224B1A78FF2A11D0531C71
:1012F000DBB21F490B701F491F48007888545A1EE3
:101300008A5C0A2A14D001221B491C4802F0E2FB25
:1013100008BD002119704FF48072164802F02CFCB1
:101320004FF6FF730A221649144802F0E5F9EAE77E
:10133000023BCB5C0D2BE6D1124802F06FFC4FF65E
:10134000FF730B4A12780B490C4802F0D5F90B4891
:1013500001F086FF2128FAD00B4802F0C1FC0021E1
:10136000034B19704FF48072024802F005FCCAE783
:10137000D40A0020D4090020D50A0020E00A002069
:10138000F09C0008FC9C00083C9D000872B6FEE73B
:1013900000B597B04422002105A802F0EDFB002320
:1013A000009301930293039304934FF4007000F0B1
:1013B00013FCD0B91023059301230B9300230C9346
:1013C00060220D920F9305A800F0F0FC78B90F236E
:1013D000009300210191029103910491684601F06C
:1013E00023F830B917B05DF804FBFFF7CFFFFFF724
:1013F000CDFFFFF7CBFF000010B500F0EDF9FFF7D0
:10140000C7FFFFF7AFFE00F02DF9FFF747FFFFF72B
:1014100085FEFFF70DFF1F4C204600F04BF8012220
:101420001D49204602F056FB00240FE01B4802F045
:1014300057FC18E01A4802F053FC1EE04FF400710C
:10144000184800F0B8FB0A2000F0E8F90134A4B213
:10145000154BA3FB04231B0B41F2883202FB134301
:101460009BB2002BE2D0114BA3FB04239B09C822A3
:1014700002FB13439BB2002BDCD00D4BA3FB0423D8
:1014800023F00F02A2EB13125300E31A9BB2002BBE
:10149000D4D0D8E7E00A0020D50A0020109D00082B
:1014A000249D0008001000485917B7D11F85EB5143
:1014B0008988888808B5054B1860054B1868002393
:1014C00002221946806802F013FC08BDD80A0020E9
:1014D0000C000020022801D80120704708B502F056
:1014E00021FB09230360002008BD000010B501386E
:1014F00001280AD814464FF0FF3392B2074800681B
:1015000002F0FAF840B9204610BD02F00BFB0923A7
:1015100003604FF0FF30F7E70520F5E7D80A002019
:10152000022801D80020704708B502F0FBFA092311
:1015300003604FF0FF3008BD08B502F0F3FA09234D
:1015400003604FF0FF3008BD08B548B94FF0FF33D6
:1015500001220848006802F033F940B9012008BDB3
:1015600002F0E0FA092303604FF0FF30F7E70520AF
:10157000F5E700BFD80A002008B5022804D84FF4C8
:1015800000534B60002008BD02F0CCFA0923036031
:10159000F8E7000000B583B00C4B1A6E42F0010270
:1015A0001A661A6E02F001020092009A9A6D42F0D9
:1015B00080529A659B6D03F080530193019B052037
:1015C00000F040F903B05DF804FB00BF00100240DA
:1015D000FEE7FEE7FEE7FEE7FEE77047704770476D
:1015E00008B500F009F908BD08B5024801F0E4FBB0
:1015F00008BD00BFE00A00200120704708B502F0D6
:1016000091FA162303604FF0FF3008BD08B54FF084
:10161000FF31FFF7F3FFFEE710B503460C4A0D4913
:101620000D48006840B10C4800680344521A9342C8
:1016300006D8094A136010BD0748084C0460F2E759
:1016400002F070FA0C2303604FF0FF30F3E700BFA5
:101650000000052000040000DC0A0020B80B002078
:101660007047000008B50B480B4B03604FF4E133A3
:10167000436000238360C36003610C224261836185
:10168000C3610362436202F08AF900B908BDFFF743
:101690007DFEFBE7E00A00200038014030B5ABB02A
:1016A00004460021259126912791289129918C2289
:1016B00002A802F061FA22681C4B9A4201D02BB0BA
:1016C00030BD0123029302A801F0F6F858BB184B75
:1016D0001A6E42F480421A661A6E02F48042009238
:1016E000009ADA6C42F00102DA64DB6C03F0010369
:1016F0000193019B4FF4C063259302232693002599
:101700002795032428940723299325A94FF0904077
:1017100000F052F92A462146252000F0A5F82520A0
:1017200000F0DAF8CBE7FFF731FED0E700380140F0
:1017300000100240DFF834D0FFF792FF0C480D494B
:101740000D4A002302E0D458C4500433C4188C421C
:10175000F9D30A4A0A4C002301E013600432A24282
:10176000FBD302F0E5F9FFF747FEFEE70000052096
:1017700000000020B80900209CA10008B809002042
:10178000B40B0020FEE70000104B1B780BB90120C2
:10179000704710B504464FF47A70B0FBF3F30C4A6F
:1017A0001068B0FBF3F000F0A5F868B90F2C01D970
:1017B00001200AE0002221464FF0FF3000F054F8EB
:1017C000044B1C60002000E0012010BD040000203C
:1017D000000000200800002010B5032000F032F8BF
:1017E0000020FFF7D1FF10B10124204610BD0446B0
:1017F000FFF7D0FEF9E70000034B1B78034A11689E
:101800000B441360704700BF04000020680B0020E9
:10181000014B1868704700BF680B002038B50446BC
:10182000FFF7F6FF0546B4F1FF3F02D0044B1B78EB
:101830001C44FFF7EDFF401BA042FAD338BD00BFA8
:1018400004000020074AD36823F4E0631B041B0C48
:10185000000200F4E060034343F0BF6343F400334D
:10186000D360704700ED00E000B5194BDB68C3F3AF
:101870000223C3F1070CBCF1040F28BF4FF0040C86
:1018800003F1040EBEF1060F18D9033B4FF0FF3EE3
:101890000EFA0CFC21EA0C0199400EFA03F322EA3D
:1018A0000303194300280BDB0901C9B200F16040B2
:1018B00000F5614080F800135DF804FB0023E5E7C4
:1018C00000F00F000901C9B2024B1954F4E700BF40
:1018D00000ED00E014ED00E0002807DB00F01F023F
:1018E000400901239340024A42F82030704700BF6C
:1018F00000E100E00138B0F1807F0BD24FF0E0232F
:101900005861054AF02182F82310002098610722CF
:101910001A6170470120704700ED00E090F8253013
:10192000DBB2022B06D00423C363002380F82430EB
:10193000012070470268136823F00E0313600268E9
:10194000136823F001031360436C03F01C03016C64
:10195000012202FA03F34B6080F82520002380F86F
:1019600024301846704708B590F82530DBB2022BBA
:1019700003D00423C363012008BD0268136823F069
:101980000E0313600268136823F001031360436CB5
:1019900003F01C03016C012202FA03F34B6080F890
:1019A0002520002380F82430836B13B19847002052
:1019B000E2E70020E0E7000070B582B0002365E0B8
:1019C00085685E000324B44025EA0405CC68B44071
:1019D0002C438460446824EA0C0C4C68C4F3001463
:1019E0009C4044EA0C04446062E0DD08083550F88D
:1019F000256003F007044FEA840C0F2404FA0CF46A
:101A000026EA040E0C6904FA0CF444EA0E0440F8C9
:101A1000254064E0072400E0002404FA0EF42C437F
:101A20000CF1020C5D4D45F82C405D4CA568D4438B
:101A300025EA0206D1F804C01CF4801F01D042EA56
:101A40000506574DAE60ED6804EA0506D1F804C0FE
:101A50001CF4001F01D042EA0506514DEE606D688E
:101A600004EA0506D1F804C01CF4003F01D042EAA4
:101A700005064B4D6E602D682C404E6816F4803F75
:101A800001D042EA0504464A146001330A6832FA7A
:101A900003F400F081804FF0010C0CFA03FC1CEA07
:101AA0000202F2D04C6804F00304013C012C87D9F7
:101AB0004C6804F00304032C0CD0C4685D004FF0A4
:101AC000030C0CFA05FC24EA0C0C8C68AC4044EACC
:101AD0000C04C4604C6804F00304022C85D0046834
:101AE0004FEA430E4FF0030C0CFA0EFC24EA0C0CE8
:101AF0004C6804F0030404FA0EF444EA0C04046095
:101B00004C6814F4403FC0D0264C256E45F00105CA
:101B10002566246E04F001040194019C4FEA930CA5
:101B20000CF102051D4C54F8255003F003044FEA54
:101B3000840E0F2404FA0EF425EA0405B0F1904F48
:101B40003FF46AAF184CA0421AD004F58064A0425A
:101B500018D004F58064A04216D004F58064A04239
:101B600014D004F58064A04212D004F58064A04231
:101B700010D004F58064A0423FF44CAF08244CE739
:101B800001244AE7022448E7032446E7042444E703
:101B9000052442E7062440E702B070BD0000014082
:101BA0000004014000100240000400480AB18161B5
:101BB000704781627047436901EA030221EA030129
:101BC00041EA024181617047024B186800F4C0602D
:101BD000704700BF00700040B0F5007F0FD01F4B72
:101BE0001B6803F4C063B3F5806F34D01B4A1368DD
:101BF00023F4C06343F48063136000207047174BE5
:101C00001B6803F4C063B3F5007F20D0134A136848
:101C100023F4C06343F400731360114B1B6832223A
:101C200002FB03F30F4AA2FB03239B0C013300E0EA
:101C3000013B0A4A526912F4806F01D0002BF7D1A0
:101C4000064B5B6913F4806F03D1002070470020BE
:101C50007047032070470020704700BF00700040AD
:101C60000000002083DE1B4330B583B00446204BC8
:101C70009B6D13F0805F0BD0FFF7A6FFB0F5007FE0
:101C800017D0802C1FD82DD0702C2DD000211BE018
:101C9000174DAB6D43F08053AB65AB6D03F08053D4
:101CA0000193019BFFF790FFAB6D23F08053AB6571
:101CB000E4E7802C03D9A02C03D9022104E0002101
:101CC00002E0012100E003210A4A136823F0070320
:101CD0000B431360136803F007038B4206D1002007
:101CE00003B030BD0221EFE70121EDE70120F7E766
:101CF0000010024000200240284A9368D26802F097
:101D0000030213F00C030AD00C2B06D0042B1FD0B7
:101D1000082B20D00020024610E0012AF6D11F4AED
:101D2000126812F0080F0CD11C4AD2F89420C2F3AA
:101D300003221B4951F8222043B100200C2B0DD067
:101D40007047164A1268C2F30312F2E71046F5E72D
:101D500014480022F2E714480022EFE70F4BDB683B
:101D600003F00303022B16D0032B00D10E4A0B49BC
:101D7000C868C0F30210431CC868C0F3062002FB09
:101D800000F0B0FBF3F0CB68C3F3416301335B00B9
:101D9000B0FBF3F0D4E7034AE9E700BF00100240CC
:101DA000589D00080024F40000127A00002800F07A
:101DB0002283F0B583B00446964B9D6805F00C0570
:101DC000DE6806F00306036813F0100F5AD0E5B181
:101DD0000C2D18D0A369002B00F0BB808D4A13682E
:101DE00043F001031360FFF713FD0746894B1B689F
:101DF00013F0020F40F09A80FFF70AFDC01B022883
:101E0000F4D9032002E3012EE4D1824B1B6813F0C6
:101E1000020F03D0A369002B00F0EF82206A7D4BF4
:101E20001B6813F0080F5BD07A4B1B6803F0F003BC
:101E300098425CD8774B1A6842F008021A601A6818
:101E400022F0F002216A0A431A605A6822F47F42A3
:101E5000E16942EA01225A60002D60D0FFF74CFF91
:101E60006C4B9B68C3F303136B4AD35C03F01F03F3
:101E7000D8406A4B18606A4B1868FFF785FC002849
:101E800040F0C482236813F0010F00F08180082D18
:101E900075D00C2D71D06368B3F5803F00F097804A
:101EA000B3F5A02F00F099805A4B1A6822F48032C3
:101EB0001A601A6822F480221A606368002B00F00E
:101EC0009980FFF7A5FC0746524B1B6813F4003FAF
:101ED0005ED1FFF79DFCC01B6428F5D9032095E275
:101EE0004C4BD3F894301B0903F0F003A0E7FFF745
:101EF000BBFE002840F08382464B1A6842F008027D
:101F00001A601A6822F0F002216A0A431A605A68BD
:101F100022F47F42E16942EA01225A609EE7206A88
:101F2000FFF7A2FE002899D001206FE2394B1A6812
:101F300042F008021A601A6822F0F002216A0A438D
:101F40001A605A6822F47F42E16942EA01225A602B
:101F500098E7304A136823F001031360FFF758FC39
:101F600007462C4B1B6813F0020F8BD0FFF750FC79
:101F7000C01B0228F5D9032048E2032E8BD1254B44
:101F80001B6813F4003F03D06368002B00F0398214
:101F9000236813F0020F58D0042D45D00C2D41D0EA
:101FA000E368002B77D01B4A136843F480731360F7
:101FB000FFF72EFC0646174B1B6813F4806F61D1A8
:101FC000FFF726FC801B0228F5D903201EE2114AE8
:101FD000136843F4803313606FE703F18043A3F584
:101FE0003C331A6842F480221A601A6842F4803244
:101FF0001A6062E7FFF70CFC0746064B1B6813F4F8
:10200000003FC5D0FFF704FCC01B6428F5D90320AE
:10201000FCE100BF00100240409D000800000020CD
:1020200008000020022EBBD1A74B1B6813F4806F61
:1020300003D0E368002B00F0E681A34A536823F045
:10204000FE43216943EA01635360236813F0080FDC
:102050004CD063699BB39C4AD2F8943043F001039F
:10206000C2F89430FFF7D4FB0646974BD3F8943070
:1020700013F0020F3AD1FFF7CBFB801B0228F4D9F3
:102080000320C3E1904A536823F0FE43216943EAE9
:1020900001635360D9E78C4A136823F4807313609B
:1020A000FFF7B6FB0646884B1B6813F4806FCCD055
:1020B000FFF7AEFB801B0228F5D90320A6E1824A78
:1020C000D2F8943023F00103C2F89430FFF7A0FB5C
:1020D00006467D4BD3F8943013F0020F06D0FFF77D
:1020E00097FB801B0228F4D903208FE1236813F0AB
:1020F000040F7AD0744B9B6D13F0805F36D1724B16
:102100009A6D42F080529A659B6D03F08053019363
:10211000019B01266D4B1B6813F4807F28D0A368B8
:10212000012B39D0052B3FD0674BD3F8902022F0FC
:102130000102C3F89020D3F8902022F00402C3F8E3
:102140009020A368002B3DD0FFF762FB07465E4B53
:10215000D3F8903013F0020F46D1FFF759FBC01BA4
:1021600041F288339842F2D903204FE10026D1E7AB
:10217000564A136843F480731360FFF749FB074620
:10218000524B1B6813F4807FC9D1FFF741FBC01B82
:102190000228F5D9032039E14B4AD2F8903043F0B8
:1021A0000103C2F89030CCE7474BD3F8902042F0BF
:1021B0000402C3F89020D3F8902042F00102C3F843
:1021C0009020BEE7FFF724FB07463F4BD3F8903043
:1021D00013F0020F08D0FFF71BFBC01B41F288333E
:1021E0009842F2D9032011E1E6B9236813F0200FD9
:1021F00035D0636AE3B1344AD2F8983043F0010332
:10220000C2F89830FFF704FB06462F4BD3F89830FE
:1022100013F0020F23D1FFF7FBFA801B0228F4D939
:102220000320F3E0284A936D23F080539365DCE7A5
:10223000254AD2F8983023F00103C2F89830FFF70E
:10224000E7FA0646204BD3F8983013F0020F06D079
:10225000FFF7DEFA801B0228F4D90320D6E0A36A38
:10226000002B00F0D280022B17D00C2D00F0D48070
:10227000154A136823F080731360FFF7C9FA044608
:10228000114B1B6813F0007F00F0AE80FFF7C0FA1F
:10229000001B0228F4D90320B8E00B4BDB6803F0E5
:1022A0000301E26A914213D00C2D00F0B180064B7D
:1022B0001B6813F0806F40F0AD80034B1B6813F078
:1022C000805F2FD00120A1E000100240007000408C
:1022D00003F07002216B0139B2EB011FE4D103F46A
:1022E000FE42616BB2EB012FDED103F07842A16BAD
:1022F000B2EBC16FD8D103F4C001E26B5208013ACE
:10230000B1EB425FD0D103F0C063226C5208013AB6
:10231000B3EB426FC8D1414B1B6813F0007F49D02B
:10232000002073E03D4A136823F080731360FFF7C9
:102330006FFA0546394B1B6813F0007F06D0FFF794
:1023400067FA401B0228F5D903205FE0334AD368BF
:1023500033491940E36A206B013843EA0013606B8C
:1023600043EA0023E06B4008013843EA4053206C05
:102370004008013843EA4063A06B43EAC0630B4363
:10238000D360136843F080731360D36843F08073A5
:10239000D360FFF73DFA0446204B1B6813F0007F23
:1023A00006D1FFF735FA001B0228F5D903202DE0EE
:1023B00000202BE0194B1A6842F080721A60DA682C
:1023C00042F08072DA60FFF723FA0446134B1B6871
:1023D00013F0007F06D1FFF71BFA031B022BF5D980
:1023E000032013E0002011E00C4AD1680D4B0B4094
:1023F000D36000200AE001207047012006E00120A0
:1024000004E0012002E0012000E0002003B0F0BD64
:102410000120FBE70120F9E70120F7E70010024067
:102420008C809D01FCFFEEFE002800F0AF8070B5AF
:102430000D460446594B1B6803F007038B420BD231
:10244000564A136823F007030B431360136803F025
:1024500007038B4240F09C80236813F0020F0CD0DE
:10246000A2684F4B9B6803F0F0039A4205D94C4990
:102470008B6823F0F0031A438A60236813F0010F7E
:1024800039D06368032B09D0022B26D063BB444AA2
:10249000126812F0020F06D1012076E0404A12685D
:1024A00012F0007F76D03E498A6822F0030213437F
:1024B0008B60FFF7ADF90646394B9B6803F00C03C0
:1024C0006268B3EB820F16D0FFF7A2F9801B41F2CE
:1024D00088339842F0D9032057E0314A126812F449
:1024E000003FE0D1012050E02D4A126812F4806FC5
:1024F000D9D1012049E0236813F0020F0CD0A26863
:10250000274B9B6803F0F0039A4205D224498B685D
:1025100023F0F0031A438A60204B1B6803F0070383
:10252000AB420AD91D4A136823F007032B431360FB
:10253000136803F00703AB422ED1236813F0040F96
:1025400006D0174A936823F4E063E1680B43936075
:10255000236813F0080F07D0114A936823F46053DF
:10256000216943EAC1039360FFF7C6FB0C4B9B68EC
:10257000C3F303130B4AD35C03F01F03D8400A4B89
:1025800018600A4B1868FFF7FFF870BD012070470C
:102590000120FAE70120F8E70120F6E700200240D9
:1025A00000100240409D00080000002008000020AC
:1025B000014B1868704700BF0000002008B5FFF706
:1025C000F7FF054B9B68C3F30223044AD35C03F077
:1025D0001F03D84008BD00BF00100240509D0008F6
:1025E00008B5FFF7E5FF054B9B68C3F3C223044A18
:1025F000D35C03F01F03D84008BD00BF00100240A9
:10260000509D0008F8B504460F46584BDB6813F0A0
:10261000030F18D0554BDB6803F0030302689342A5
:1026200002D001252846F8BD002A00F09D804F4BBE
:10263000DB68C3F3021301334268934201D00125E2
:10264000F0E7002509E00368022B56D0032B5BD08E
:10265000012B41D00125002DE4D1444A136823F019
:1026600080631360FFF7D4F80646404B1B6813F0F5
:10267000006F05D0FFF7CCF8831B022BF5D903259B
:10268000002DCFD1002F4DD138490B6923F078436D
:1026900023F4FE43A068E268D20642EA0022134314
:1026A0000B61324A136843F080631360FFF7B0F8A0
:1026B00006462E4B1B6813F0006F05D1FFF7A8F8F4
:1026C000831B022BF5D90325002DABD1274A1369B3
:1026D000A1690B431361A5E7244A126812F0020FA7
:1026E0001ED02248C26822F073026168013943EAB1
:1026F00001131343C3600025ADE71C4A126812F4AE
:10270000806FEED10125A6E7184A126812F4003F47
:10271000E7D1164A126812F4802FE2D101259AE718
:10272000012598E7012F0FD01048026922F0C062FE
:1027300022F4FE42A16863695B08013B5B0643EA41
:10274000012313430361ACE70848026922F4C00285
:1027500022F4FE42A16823695B08013B5B0543EA62
:102760000123134303619CE701255BE7001002404E
:10277000F8B504460F464F4BDB6813F0030F18D033
:102780004C4BDB6803F003030268934202D001253F
:102790002846F8BD002A00F08B80464BDB68C3F367
:1027A000021301334268934201D00125F0E700256E
:1027B00009E00368022B56D0032B5BD0012B41D0DC
:1027C0000125002DE4D13B4A136823F080531360A8
:1027D000FFF71EF80646374B1B6813F0005F05D065
:1027E000FFF716F8831B022BF5D90325002DCFD157
:1027F000002F4DD12F494B6923F0784323F4FE433A
:10280000A068E268D20642EA002213434B61294ADB
:10281000136843F080531360FEF7FAFF0646254B1A
:102820001B6813F0005F05D1FEF7F2FF831B022B3C
:10283000F5D90325002DABD11E4A536961690B43BD
:102840005361A5E71B4A126812F0020F1ED0194807
:10285000C26822F073026168013943EA011313432D
:10286000C3600025ADE7134A126812F4806FEED101
:102870000125A6E70F4A126812F4003FE7D10D4A7E
:10288000126812F4802FE2D101259AE7012598E71A
:102890000848426922F0C06222F4FE42A16823691E
:1028A0005B08013B5B0643EA012313434361AEE748
:1028B00001256DE7001002402DE9F04182B0044689
:1028C000036813F4006F33D0836EB3F5000F1FD08D
:1028D0000CD823B3B3F5800F05D100212030FFF7CA
:1028E00047FF064620E001273E4623E0B3F5400FB0
:1028F0000BD10026604AD2F8883023F44003A16E41
:102900000B43C2F88830002714E001273E4611E04F
:10291000594AD36843F48033D3600026EAE70021A4
:102920000430FFF76FFE0646002EE3D0374601E085
:1029300000273E46236813F4805F30D0E36EB3F186
:10294000007F1FD00DD81BB3B3F1807F06D10021CB
:1029500004F12000FFF70CFF064605E001273E4684
:102960001DE0B3F1407F0AD1C6B9434AD2F888309E
:1029700023F04073E16E0B43C2F888300FE001276B
:102980003E460CE03C4AD36843F48033D360EBE727
:102990000021201DFFF736FE0646E5E7374623688F
:1029A00013F4003F71D0344B9B6D13F0805F4ED118
:1029B000314B9A6D42F080529A659B6D03F08053C3
:1029C0000193019B4FF001082C4A136843F4807374
:1029D0001360FEF71DFF0546284B1B6813F4807F2C
:1029E00005D1FEF715FF401B0228F5D90326002E5E
:1029F00046D1214BD3F8903013F4407316D0D4F85D
:102A000088209A4212D01C4AD2F8903023F44073A6
:102A1000D2F8901041F48031C2F89010D2F89010A2
:102A200021F48031C2F89010C2F8903013F0010FF9
:102A300010D1002E40F035810F4AD2F8903023F4A7
:102A40004073D4F888100B43C2F8903019E04FF06F
:102A50000008B9E7FEF7DCFE0546074BD3F89030D7
:102A600013F0020FE5D1FEF7D3FE401B41F288338D
:102A70009842F2D90326DCE70010024000700040C3
:102A80003746B8F1000F40F00E81236813F0010FB4
:102A900008D0A44AD2F8883023F00303A16B0B437B
:102AA000C2F88830236813F0020F08D09D4AD2F88C
:102AB000883023F00C03E16B0B43C2F888302368A5
:102AC00013F0040F08D0974AD2F8883023F030036F
:102AD000216C0B43C2F88830236813F0080F08D02C
:102AE000904AD2F8883023F0C003616C0B43C2F8DF
:102AF0008830236813F0100F08D08A4AD2F8883043
:102B000023F44073A16C0B43C2F88830236813F0A0
:102B1000200F08D0834AD2F8883023F44063E16C58
:102B20000B43C2F88830236813F4007F08D07D4A35
:102B3000D2F8883023F44023216E0B43C2F888304A
:102B4000236813F4806F08D0764AD2F8883023F4D3
:102B50004013616E0B43C2F88830236813F0400FB6
:102B600008D0704AD2F8883023F44053216D0B43CB
:102B7000C2F88830236813F0800F08D0694AD2F871
:102B8000883023F44043616D0B43C2F888302368DA
:102B900013F4807F08D0634AD2F8883023F440339E
:102BA000A16D0B43C2F88830236813F4801F08D04E
:102BB0005C4AD2F89C3023F00303E16D0B43C2F86A
:102BC0009C30236813F4005F0FD0564AD2F8883047
:102BD00023F04063216F0B43C2F88830236FB3F1B9
:102BE000006F66D0B3F1806F68D0236813F4002FB4
:102BF0000FD04C4AD2F8883023F04063616F0B430A
:102C0000C2F88830636FB3F1006F5FD0B3F1806FAB
:102C100061D0236813F4802F0FD0424AD2F8883055
:102C200023F04063A16F0B43C2F88830A36FB3F168
:102C3000006F58D0B3F1806F5AD0236813F4804FDF
:102C40000FD0384AD2F8883023F04053E16F0B435D
:102C5000C2F88830E36FB3F1805F51D0B3F1005F09
:102C600056D0236813F4004F09D02E4AD2F888308A
:102C700023F08043D4F880100B43C2F888302368D7
:102C800013F4803F09D0274AD2F8883023F000435C
:102C9000D4F884100B43C2F88830384602B0BDE83F
:102CA000F0813746EDE61F4A936D23F0805393651C
:102CB000EBE6D36843F48013D36096E70121201D2F
:102CC000FFF7A0FC002890D007468EE7D36843F4B6
:102CD0008013D3609DE70121201DFFF793FC00289E
:102CE00097D0074695E7D36843F48013D360A4E7F1
:102CF0000121201DFFF786FC00289ED007469CE797
:102D00000221201DFFF77EFC0028AAD00746A8E775
:102D1000022104F12000FFF72BFD0028A1D0074677
:102D20009FE700BF00100240026852E8003F23F412
:102D3000907342E800310029F6D1026802F10803DD
:102D400053E8003F23F00103083242E80031002934
:102D5000F3D1036E012B06D02023C0F8803000236E
:102D6000036683667047026852E8003F23F0100351
:102D700042E800310029F6D1EEE7704708B5026855
:102D800052E8003F23F0400342E800310029F6D129
:102D90002023C3670023C366FFF7EFFF08BD70471A
:102DA00008B5806A0023A0F85A30A0F85230FFF727
:102DB000F6FF08BD7047000070B504460168CB6996
:102DC00008688D6840F60F021A4005D113F0200FF5
:102DD00002D010F0200F20D12AB115F0010222D12B
:102DE000AF4E30421FD1226E012A00F0AB8013F4A7
:102DF000801F03D015F4800F40F03F8113F0800F47
:102E000003D010F0800F40F03F8113F0400F03D04B
:102E100010F0400F40F03F8170BDA36E002BFBD03F
:102E200020469847F8E713F0010F09D010F4807F8F
:102E300006D001250D62D4F884102943C4F884100B
:102E400013F0020F09D042B1216802250D62D4F8B7
:102E5000841041F00401C4F8841013F0040F09D069
:102E600042B1216804250D62D4F8841041F00201BA
:102E7000C4F8841013F0080F0BD010F0200F00D10D
:102E80003AB1226808211162D4F884200A43C4F8B8
:102E9000842013F4006F0CD010F0806F09D02268EA
:102EA0004FF400611162D4F8842042F02002C4F88B
:102EB0008420D4F88420002AAED013F0200F06D04E
:102EC00010F0200F03D0A36E0BB120469847D4F822
:102ED000842023689B6813F0400F02D112F0280F62
:102EE00029D02046FFF720FF23689B6813F0400F8E
:102EF0001DD0226802F1080353E8003F23F040038D
:102F0000083242E800310029F3D1636F5BB1654AB2
:102F10009A63606FFEF727FD00283FF47DAF606F76
:102F2000836B984778E72046FFF739FF74E7204620
:102F3000FFF735FF70E72046FFF731FF0023C4F8A5
:102F4000843069E713F0100F3FF451AF10F0100F09
:102F50003FF44DAF10230B6223689B6813F0400FC2
:102F600051D0626F13685B689BB2002B3FF454AF83
:102F7000B4F8581099427FF64FAFA4F85A3013684E
:102F80001B6813F0200F31D1226852E8003F23F470
:102F9000807342E800310029F6D1226802F108036B
:102FA00053E8003F23F00103083242E800310029D2
:102FB000F3D1226802F1080353E8003F23F04003F5
:102FC000083242E800310029F3D12023C4F88030D0
:102FD00000232366226852E8003F23F0100342E8F2
:102FE00000310029F6D1606FFEF798FC022363667A
:102FF000B4F85810B4F85A309BB2C91A89B22046B6
:10300000FFF7D8FE08E7B4F85810B4F85A309BB26E
:10301000C91A89B2B4F85A309BB2002B3FF4FCAE07
:1030200000293FF4F9AE226852E8003F23F4907380
:1030300042E800300028F6D1226802F1080353E884
:10304000003F23F00103083242E800300028F3D1AA
:103050002023C4F8803000232366A366226852E848
:10306000003F23F0100342E800300028F6D102238D
:1030700063662046FFF79EFECEE64FF480130B6298
:10308000204600F04DFDC7E6E36E002B3FF4C4AED2
:1030900020469847C0E62046FFF770FEBCE600BF1A
:1030A00020010004A12D000808B5B0F85C30D0F86C
:1030B0008020222A06D00268138B9BB243F00803BB
:1030C000138308BD0268918CDBB2426D0B40137014
:1030D000436D01334365B0F85A309BB2013B9BB25C
:1030E000A0F85A30B0F85A309BB2002BE9D10268F0
:1030F00052E8003F23F4907342E800310029F6D1F2
:10310000026802F1080353E8003F23F0010308328C
:1031100042E800310029F3D12023C0F88030002399
:10312000836643660368164A93420CD05B6813F4C7
:10313000000F08D0026852E8003F23F0806342E8A5
:1031400000310029F6D1036E012B16D1002303664E
:10315000026852E8003F23F0100342E800310029E2
:10316000F6D10368DA6912F0100F01D010221A624A
:10317000B0F85810FFF71EFEA3E7FEF7B3F8A0E77C
:103180000080004008B5B0F85C30D0F88020222ADA
:1031900006D00268138B9BB243F00803138308BD6B
:1031A0000268918C426D0B401380436D023343657E
:1031B000B0F85A309BB2013B9BB2A0F85A30B0F83D
:1031C0005A309BB2002BEAD1026852E8003F23F448
:1031D000907342E800310029F6D1026802F1080339
:1031E00053E8003F23F00103083242E80031002990
:1031F000F3D12023C0F88030002383664366036840
:10320000164A93420CD05B6813F4000F08D0026892
:1032100052E8003F23F0806342E800310029F6D1F4
:10322000036E012B16D100230366026852E8003FAB
:1032300023F0100342E800310029F6D10368DA696F
:1032400012F0100F01D010221A62B0F85810FFF7D8
:10325000B1FDA4E7FEF746F8A1E700BF00800040FB
:10326000C26FD0F8800010437047000010B50446CC
:10327000016883680269134342691343C2691343B7
:1032800008688E4A024013430B602268536823F497
:103290004053E1680B435360A1692268884B9A420E
:1032A00001D0236A1943936823F430630B4393607E
:1032B0002368844A934210D0834A934221D0834AA0
:1032C000934237D0824A93425CD0824A93426BD079
:1032D0007B4A93427DD010223AE002F55842D2F860
:1032E000882002F00302032A09D8DFE802F0020472
:1032F000870601222CE004222AE0082228E010227E
:1033000026E002F5E632D2F8882002F00C020C2A00
:103310000ED8DFE802F0070D0D0D090D0D0D750D2E
:103320000D0D0B00002213E0042211E008220FE033
:1033300010220DE002F5E432D2F8882002F03002CB
:10334000202A5FD01AD8002A5ED0102A5ED104222B
:103350005B498B4276D0E069B0F5004F00F0A38066
:10336000082A00F20E81DFE812F0DD00F300DB0036
:103370000C01F6000C010C010C01F900302A47D1B8
:103380000822E5E702F5E232D2F8882002F0C00216
:10339000802A3FD004D8FAB3402A3FD10422D7E78D
:1033A000C02A3DD10822D3E702F5E032D2F88820C6
:1033B00002F44072B2F5007F34D005D8A2B3B2F562
:1033C000807F33D10422C3E7B2F5407F30D1082299
:1033D000BEE702F5C832D2F8882002F44062B2F5A6
:1033E000006F27D005D83AB3B2F5806F26D10422FA
:1033F000AEE7B2F5406F23D10822A9E70222A7E782
:103400000222A5E70222A3E70022A1E710229FE7FC
:1034100010229DE702229BE7002299E7102297E7FE
:10342000102295E7022293E7002291E710228FE70E
:1034300010228DE702228BE7002289E7102287E71E
:10344000102285E7082A00F28C80DFE802F0088A63
:103450002A8A278A8A8A05004FF4004003E0FFF792
:10346000ADF800287FD0626802EB420383427CD82B
:10347000B0EB023F7BD8010E00025308C0184FF09A
:10348000000341F10001FCF7BBFEA0F54072124BB6
:103490009A426ED82368D860002055E0FEF72CFCD5
:1034A000DFE70E48DFE7082A65D8DFE802F01933C6
:1034B0000564366464641D00084815E0F369FFEF95
:1034C00000800040003801400044004000480040B7
:1034D000004C004000500040FFFC0F000024F400AE
:1034E000FFF76CF8002848D06268530803EB4000EF
:1034F000B0FBF2F0A0F110024FF6EF739A423ED803
:1035000083B223F00F03C0F3420018432368D8604E
:10351000002019E0FFF764F8E4E7FEF7EDFBE1E7D0
:103520001B4802E0FFF74AF868B3636800EB5300FA
:10353000B0FBF3F0A0F110024FF6EF739A4224D8DB
:10354000236880B2D86000200023A366E36610BD24
:10355000FFF746F8E8E7FEF7CFFBE5E74FF400405A
:10356000E3E70120F0E70020EEE70120ECE701208F
:10357000EAE70120E8E70120E6E70020E4E7012090
:10358000E2E70120E0E70020DEE70120DCE700BF02
:103590000024F400436A13F0080F06D00268536851
:1035A00023F40043416B0B435360436A13F0010F54
:1035B00006D00268536823F40033816A0B435360DA
:1035C000436A13F0020F06D00268536823F4803375
:1035D000C16A0B435360436A13F0040F06D00268BC
:1035E000536823F48023016B0B435360436A13F049
:1035F000100F06D00268936823F48053816B0B434D
:103600009360436A13F0200F06D00268936823F496
:103610000053C16B0B439360436A13F0400F0AD011
:103620000268536823F48013016C0B435360036CEE
:10363000B3F5801F0BD0436A13F0800F06D00268E9
:10364000536823F40023816C0B4353607047026876
:10365000536823F4C003416C0B435360EBE72DE93F
:10366000F84305460F4616469946DDF820802C683B
:10367000E46937EA04030CBF4FF0010C4FF0000C73
:10368000B44532D1B8F1FF3FF1D0FEF7C1F8A0EB5D
:10369000090040452CD8B8F1000F2BD02B681A68D0
:1036A00012F0040FE3D0DA6912F0080F11D1DA69D1
:1036B00012F4006FDBD04FF400621A622846FFF765
:1036C00033FB2023C5F88430002385F878300320AD
:1036D0000CE008241C622846FFF726FBC5F884404E
:1036E000002385F87830012000E00020BDE8F88351
:1036F0000320FBE70320F9E72DE9F04182B01E46E5
:10370000C36F202B56D104460D469046002955D054
:103710000AB901204FE00023C0F884302123C36799
:10372000FEF776F80746A4F85080A4F85280A36804
:10373000B3F5805F02D04FF0000818E0236913B1A1
:103740004FF0000813E0A846002510E02023E367AF
:10375000032030E038F8023B2268C3F308031385E6
:10376000B4F8522092B2013A92B2A4F85220B4F8BE
:1037700052309BB27BB100963B460022802120460E
:10378000FFF76DFF0028E1D1002DE3D0236815F885
:10379000012B1A85E4E700963B4600224021204693
:1037A000FFF75DFF10B92023E36704E02023E36700
:1037B000032000E0022002B0BDE8F0810120FAE71A
:1037C0002DE9F04383B01E46D0F88030202B7DD108
:1037D00004460D46904600297CD00AB9012076E0C7
:1037E0000023C0F884302222C0F880200366FEF750
:1037F0000FF80746A4F85880A4F85A80A368B3F5D8
:10380000805F06D0A3B9226972B9FF22A4F85C20B8
:1038100014E0226922B940F2FF12A4F85C200DE006
:10382000FF22A4F85C2009E07F22A4F85C2005E0D8
:10383000B3F1805F0AD00022A4F85C20B4F85C8069
:10384000B3F5805F0CD04FF0000923E022691AB96C
:103850007F22A4F85C20F1E73F22A4F85C20EDE78A
:10386000236913B14FF0000914E0A946002511E0C7
:103870002023C4F88030032029E023689B8C08EAC9
:10388000030329F8023BB4F85A2092B2013A92B2EB
:10389000A4F85A20B4F85A309BB293B100963B4634
:1038A000002220212046FFF7DAFE0028E0D1002D7B
:1038B000E3D023689A8C5FFA88F3134005F8013B44
:1038C000E1E72023C4F88030002000E0022003B0AC
:1038D000BDE8F0830120FAE730B583B00446002349
:1038E000C0F88430FDF794FF05462268126812F094
:1038F000080F0FD123681B6813F0040F26D1202373
:10390000E367C4F8803000202066606684F87800A1
:1039100003B030BD6FF07E430093034600224FF4A6
:1039200000112046FFF79BFE0028E3D0226852E8F2
:10393000003F23F0800342E800310029F6D1202324
:10394000E367002384F878300320E1E76FF07E43DB
:1039500000932B4600224FF480012046FFF77FFEA4
:103960000028CCD0226852E8003F23F4907342E84C
:1039700000310029F6D1226802F1080353E8003F24
:1039800023F00103083242E800310029F3D120235B
:10399000C4F88030002384F878300320B8E768B397
:1039A00010B50446C36F03B32423E367226813688A
:1039B00023F001031360636AE3B92046FFF756FC66
:1039C000012811D02268536823F490435360226881
:1039D000936823F02A0393602268136843F001037D
:1039E00013602046FFF778FF10BD80F87830FDF7B0
:1039F00055FED9E72046FFF7CDFDDEE701207047F1
:103A00004165A0F85820A0F85A20002383668368F7
:103A1000B3F5805F06D0A3B9036973B9FF23A0F89B
:103A20005C3014E0036923B940F2FF13A0F85C3066
:103A30000DE0FF23A0F85C3009E07F23A0F85C30A4
:103A400005E0B3F1805F27D00023A0F85C300023AD
:103A5000C0F884302223C0F88030026802F10803E5
:103A600053E8003F43F00103083242E800310029E7
:103A7000F3D18368B3F5805F18D0144B8366036974
:103A8000D3B1026852E8003F43F4907342E800313A
:103A90000029F6D10020704703691BB97F23A0F8E5
:103AA0005C30D4E73F23A0F85C30D0E70369002BFB
:103AB000E3D1074B8366E2E7026852E8003F43F038
:103AC000200342E800310029F6D1E3E7A9300008DD
:103AD0008531000838B5D0F88030202B17D1C1B11E
:103AE000CAB10023036603680C4CA3420CD05B6888
:103AF00013F4000F08D0046854E8003F43F08063DB
:103B000044E80035002DF6D1FFF77AFF00E00220EF
:103B100038BD0120FCE70120FAE700BF008000402B
:103B200070470000014B1868704700BF0C00002070
:103B300070B50D4E0D4D761BB61006D0002455F80D
:103B4000043B01349847A642F9D1094E094D761B32
:103B500006F0C2F8B61006D0002455F8043B013434
:103B60009847A642F9D170BD90A1000890A1000825
:103B700098A1000890A10008830730B548D0541ED2
:103B8000002A3FD0CAB2034601E0013C3AD303F811
:103B9000012B9D07F9D1032C2DD9CDB245EA05257E
:103BA0000F2C45EA054536D9A4F1100222F00F0C7E
:103BB00003F1200EE6444FEA121C03F1100242E921
:103BC000045542E9025510327245F8D10CF1010258
:103BD00014F00C0F03EB021204F00F0C13D0ACF135
:103BE000040323F003030433134442F8045B9342B9
:103BF000FBD10CF003042CB1CAB21C4403F8012B16
:103C00009C42FBD130BD64461346002CF4D1F9E749
:103C100003461446BFE71A46A446E0E70FB400B5D2
:103C2000074983B004AB086853F8042B81680193FB
:103C300000F036F903B05DF804EB04B0704700BF44
:103C40000C00002070B5054688B008460C46FCF70D
:103C500077FC224EAA6B059001214318CDE906613D
:103C600004A8022104940393AC680190029122B34A
:103C7000636E13F0010FB4F90C309AB201D19805BC
:103C800025D5910406D4626E43F4005322F4005209
:103C9000A3816266284601AA214603F0DDF9636E1E
:103CA000002814BF4FF0FF350A25DA0702D4A38994
:103CB0009B0506D5284608B070BD284602F0CEFF09
:103CC000D6E7A06D03F06AFB284608B070BDA06D72
:103CD00003F062FBB4F90C309AB2D2E78C9D000875
:103CE000024B01461868FFF7ADBF00BF0C00002073
:103CF0002DE9F043694CD4F8008083B004460E46A9
:103D000017461D46B8F1000F03D0D8F83830002B05
:103D100077D0022F05D0012F00F2AC80002DC0F229
:103D2000A980636EDA0752D52146404602F062FF51
:103D3000216B41B104F14003994202D0404603F0A7
:103D400085F800232363B4F90CC000231CF0800F16
:103D5000A361636064D12CF44A6C2CF0030C022F35
:103D6000A4F80CC06AD001AB6A462146404603F075
:103D700087FBA3891843A081002D2FD0002E2ED0C1
:103D8000D8F83830002B38D0009B2660AB42B4F90D
:103D90000C301CBF43F40063A381012F04BF43F028
:103DA0000103A3819AB213F00803C4E904652CD07F
:103DB000D1075DD56D42A561656E002315F0010543
:103DC000A36027D00025284603B0BDE8F083A3896F
:103DD0009B05A9D4A06D03F0DFFAA5E7009D284656
:103DE00003F07EFB0646002847D0A38943F08003FA
:103DF000A381D8F83830002BC6D1404602F02EFF00
:103E0000C2E7404602F02AFF83E7A360656E15F023
:103E10000105D7D1930524D5284603B0BDE8F0832A
:103E20002169404603F012F8B4F90CC02CF44A6C36
:103E30002CF0030C022FA4F80CC094D10025002212
:103E400004F14303A2600122C4E904322360636EDB
:103E50004CF0020CD807A4F80CC0DDD41CF4007F91
:103E6000DAD1A06D03F09AFA284603B0BDE8F083DA
:103E7000A560CBE74FF0FF35CEE7DDF80090A94510
:103E800004D0484603F02CFB064620B9B4F90CC018
:103E90004FF0FF35D3E74D46A7E700BF0C000020E9
:103EA0002DE9F04FD5B01C46079191460546099083
:103EB00003F06AFA0268179210460E94FCF740FB72
:103EC00016901DB1AB6B002B00F02A82079A536E3F
:103ED000DD0740F13881B2F90C2091B28F0409D48A
:103EE000079B42F400529A8191B21A465B6E23F40A
:103EF000005353660E0740F1CB80079B1B69002BD4
:103F000000F0C68001F01A030A2B00F0CF800024D5
:103F10002BAB4D46CDE92944CDE91944CDE91B44ED
:103F2000129428939846189400230B940024CDE90A
:103F300014342B78002B00F09D81AA4604E01AF877
:103F4000013F002B00F0C780252BF8D1BAEB050606
:103F500040F0C5809AF80030002B00F08B810023E0
:103F60004FF0FF329AF801608DF883300A930AF11E
:103F7000010A08921F462B244FF020090AF1010A7A
:103F8000A6F120035A2B00F2ED80DFE813F0EB02DC
:103F9000EB00EB00E602EB00EB00EB006A00EB004D
:103FA000EB005C028002EB0067028A02EB008502F4
:103FB0005B005B005B005B005B005B005B005B0029
:103FC0005B00EB00EB00EB00EB00EB00EB00EB0029
:103FD0007A01EB00F801D2017A017A017A01EB0053
:103FE000EB00EB00EB00E102EB00EB002D02EB003D
:103FF000EB00EB000202EB00A402EB00EB008307F6
:10400000EB00EB00EB00EB00EB00EB00EB00EB0058
:104010007A01EB00F801D4017A017A017A01C70232
:10402000D401CD01EB00D402EB006C022F02B502EB
:10403000CD01EB0002027E008007EB00EB00610780
:10404000EB007E00A6F1300300221AF8016B02EBB0
:10405000820203EB4202A6F13003092BF5D90A9242
:104060008EE7DDF824B0584603F08EF943681B93C1
:104070001846FCF765FA1C900646584603F084F98A
:1040800083681993002E40F0CD869AF8006075E79A
:10409000079D0998294601F0ADFC002841F01C83DA
:1040A000A98901F01A030A2B7FF431AF079AB2F9FC
:1040B0000E30002BFFF62BAF536ED80702D48905C4
:1040C00041F13B810799099823464A4655B0BDE81E
:1040D000F04F01F04FBCBAEB050600F0CB802A9BF5
:1040E00033442A93299B0133072BC8E900562993AF
:1040F00005DC08F108080B9B33440B932AE707996A
:10410000099828AA04F0C0FB80B90DF1AC08F2E7C9
:104110000799099828AA04F0B7FB002800F09B80B3
:104120000D9B1BB10998194602F090FE079A536E39
:10413000D90740F1EA8093895B0601F1D9820B9897
:1041400055B0BDE8F08F079BB3F90C20900591B2F4
:104150003FF5C4AE1D46986D03F01EF9B5F90C206D
:1041600091B2BBE6002E00F0858000228DF8EC6055
:104170008DF883200123CDE90C32069308920F922B
:10418000139210923BAD17F0020302D00699023150
:10419000069117F0840B07D10A990698A1EB000944
:1041A000B9F1000F00F370832A9C8AB1299A0DF1AE
:1041B000830101320134C8F80010072A4FF00101D1
:1041C0002A942992C8F8041000F3B68308F108086D
:1041D00083B1299B21AA01330234C8F80020072BA0
:1041E0004FF002022A942993C8F8042000F3B28306
:1041F00008F10808BBF1800F00F06982089B0C9A57
:10420000A3EB020BBBF1000F00F3AA82FB0500F148
:1042100000820C9BC8F804301C44299BC8F800504D
:104220000133072B2A94299300F3228308F108080D
:10423000780705D50A9B069A9D1A002D00F39683F0
:10424000DDE90A2306998A42ACBF9B185B180B93E1
:10425000002C7FF45DAF002329930D9B1BB10D99BA
:10426000099802F0F3FD0DF1AC0855462B78002BB0
:104270007FF463AE2A9B002B41F0D3810023299366
:1042800054E70E9B073323F00702F2E80234CDE92E
:104290001434DDE9143424F000440E929946184693
:1042A0002146B54B4FF0FF32FCF7FAFE002840F0F4
:1042B000EF84B14B484621464FF0FF32FCF7D2FE67
:1042C000002840F0E584DDE9140100220023FCF71A
:1042D000BFFE002840F067879DF88320A74DA84BBC
:1042E00027F080070321472EC8BF1D4600230D93EA
:1042F00006910C9108930F9313931093002A3FF4A7
:1043000042AF069B013306933DE7079B9B899A05C5
:104310003FF512AF079CA06D03F040F8A3890BE7AF
:10432000099802F09BFCD1E59AF8006047F020075D
:1043300024E647F01007BA060E9B40F13B84073392
:1043400023F007031A465B6852F8084B0E92994611
:10435000002BC0F24C84089B013300F0D88254EA51
:10436000090327F0800B40F0D382089B002B40F01C
:10437000D4825F46002308930C9354AD1DE10E9B3D
:10438000002253F8041B8DF883208DF8EC100E9357
:10439000F0E60E9C089B54F8045B4FF000098DF882
:1043A0008390002D00F093855A1C00F051861A4628
:1043B00049462846FCF734F90D90002801F00E819B
:1043C0000D9BCDF820905B1B0C930E9423EAE373B6
:1043D0009DF883200693CDF83490CDF83C90CDF82D
:1043E0004C90CDF8409089E747F0100717F020096E
:1043F00000F0D2830E9B073323F00703D3F8049019
:1044000053F8084B0E9327F4806B002300228DF89D
:104410008320089A511C00F0B88054EA09012BF05F
:10442000800740F0B180002A40F0F685002BA1D132
:104430001BF001030C9300F0148430238DF84F31EE
:104440000DF24F15B9E00E9B53F8042B0A92002A87
:1044500080F2DA830A9A0E9352420A929AF8006026
:1044600047F004078AE5BD0600F1D184FC0600F19F
:10447000D885780600F1A586B90540F1D2850E9B56
:104480000B9953F8042B0E9311705546EEE69AF8EB
:1044900000608DF8834071E59AF8006047F080076E
:1044A0006CE5524612F8016B2A2E01F03F82A6F10C
:1044B0003003092B924698BF002201F2BC801AF803
:1044C000016B02EB820203EB4202A6F13003092BDF
:1044D000F5D9089254E547F0100B1BF0200900F0C5
:1044E00076830E9B073323F00703D3F8049053F829
:1044F000084B0E93012389E70E9B53F8044B0E9350
:10450000302378268DF884301E4B189347F0020B29
:104510008DF885604FF00009022377E79AF8006074
:10452000682E03BF9AF8016047F400770AF1010A88
:1045300047F0400722E59AF800606C2E03BF9AF816
:10454000016047F020070AF1010A47F0100715E55E
:104550009AF8006047F0080710E59AF8006047F005
:1045600001070BE59DF88330002B7FF48EAD9AF8A0
:1045700000608DF8839001E5FFFFEF7F909D0008BC
:10458000949D0008A09D0008BB46012B00F0C0814F
:10459000022B54AD20D1189A04F00F032409D35CE8
:1045A00005F8013D44EA09744FEA191954EA090370
:1045B000F2D154AB5B1B5F460C9308990C989DF8A5
:1045C000832081424FF00003B8BF01460D9306914E
:1045D0000F931393109391E604F00703E40844EA61
:1045E00049744FEAD909303354EA09012A4605F8DB
:1045F000013DF1D11BF0010FDBD0302BD9D030239E
:10460000023A05F8013C54AB9B1A5F460C931546E1
:10461000D3E7652E40F3E680DDE914010022002394
:10462000FCF70CFD002800F0DC81299BBF4AC8F88C
:104630000020013301340122072B2A942993C8F862
:10464000042000F3CC8408F10808229B129A9342BC
:1046500080F2D682169B179A1C44C8E90023299B36
:104660002A940133072B299300F3248408F10808C6
:10467000129B5D1E002D7FF7DBAD102D299BDFF80F
:10468000B09240F3BD8449462246B946DDF824B0D5
:10469000079C10260F4605E008F10808103D102D74
:1046A00040F3AA8401331032072BC8E90076CDE924
:1046B0002932F1DD28AA2146584604F0E5F8002801
:1046C0007FF42EADDDE929320DF1AC08E6E70A9B57
:1046D000069AA3EB020BBBF1000F7FF78FADBBF186
:1046E000100F299ADFF848922CDD1D9621464E4680
:1046F000079CDDF82490102306E0ABF1100BBBF112
:10470000100F08F108081ADD01321031072AC8E934
:104710000063CDE92921F0DD28AA214648460DF1A4
:10472000AC0804F0B1F800287FF4FAACABF1100B40
:10473000BBF1100FDDE929214FF01003E4DCB14695
:104740001D9E0C4601325C44072ACDE92924C8F895
:104750000090C8F804B000F3A08308F108084DE504
:10476000BBF1100F299ADFF8C8912DDD4146204694
:10477000A8464C46079DDDF82490102306E0ABF1D7
:10478000100BBBF1100F01F1080119DD01321030DF
:10479000072AC1E90043CDE92920F0DD28AA2946EE
:1047A000484604F071F800287FF4BAACABF1100B66
:1047B000BBF1100FDDE929202BA94FF01003E5DC38
:1047C0004546A1468846044601325C44072ACDE9A5
:1047D0002924C8F80090C8F804B000F3D08108F18B
:1047E000080813E5129B012B40F38081299EC8F82D
:1047F0000050013601340123072E2A942996C8F867
:10480000043000F37C8308F10808169B179A0136E0
:104810001C44072EC8E90023CDE9296400F37C83FA
:1048200008F10808DDE9140100220023FCF706FC6A
:10483000002840F07881129B0136013B01351C4471
:10484000072EC8F800502996C8F804302A9400F3BF
:104850005D8108F108081A9BC8F8043001361C4431
:10486000072E24ABCDE92964C8F800307FF7DEAC11
:104870000799099828AA04F007F800287FF450AC9B
:104880002A9C0DF1AC08D3E4B9F1100FDDE9292120
:104890002BDDCDE91D3B1F96DDF824B04E461024DC
:1048A000A946079D04E0103E102E08F1080817DD08
:1048B0000132204B1031072AC8E90034CDE9292103
:1048C000F1DD28AA294658460DF1AC0803F0DCFFBB
:1048D00000287FF425AC103E102EDDE92921E7DC0D
:1048E000DDE91D3B4D46B1461F9EC8F804900132DC
:1048F00009EB0104072A0F49C8F80010CDE9292463
:1049000000F351839DF8832008F108084DE4BB466D
:104910000A2C79F1000380F00C83303401238DF8E8
:104920004F415F460C930DF24F1546E6D09D0008AF
:10493000E49D0008D49D0008079909981D9328AAB2
:1049400003F0A2FF00287FF4EBAB2A9C1D9B0DF126
:10495000AC083DE40799099828AA03F095FF0028C0
:104960007FF4DEAB2A9C0DF1AC0843E4102D299BAB
:1049700021DD099FDDF81C90102604E0103D102D6C
:1049800008F1080817DD0133BB4A1034072BC8E9CA
:104990000026CDE92934F1DD28AA494638460DF133
:1049A000AC0803F071FF00287FF4BAAB103D102D66
:1049B000DDE92934E7DC0133AF4AC8F804502C4460
:1049C000072BCDE92934C8F800207FF739AC0799C7
:1049D000099828AA03F058FF00287FF4A1AB2A9C6D
:1049E0002EE42299002940F31481DDF84090129BB7
:1049F0009945A8BF9946B9F1000F0BDD299B0133FA
:104A00004C44072BC8E900592A94299300F39A854E
:104A100008F10808109EB9F1000FA8BFA6EB09061F
:104A2000002E00F34683DDF840B07905AB4400F179
:104A3000CE84229B129A934202DBFA0740F1B8839C
:104A4000169A17991444C8E90012299A2A94013237
:104A5000072A299200F3838508F10808129AAE18F4
:104A6000A6EB0B06D51AAE42A8BF2E46002E0DDDD2
:104A7000299BC8F800B001333444072BC8F8046000
:104A80002A94299300F3F18508F10808002EA8BFA5
:104A9000AD1B002D7FF7CCAB102D299BDFF8DC91EF
:104AA00040F3AE8249462246B946DDF824B0079C61
:104AB00010260F4605E008F10808103D102D40F3C0
:104AC0009B8201331032072BC8E90076CDE92932E9
:104AD000F1DD28AA2146584603F0D6FE00287FF4CF
:104AE0001FABDDE929320DF1AC08E6E7FE073FF523
:104AF0007DAE299EC8F80050013601340123072EEF
:104B00002A942996C8F804307FF7A3AE079909982C
:104B100028AA03F0B9FE00287FF402ABDDE929647E
:104B20000DF1AC0897E6129B5D1E002D7FF793AE4A
:104B3000102DDFF8489140F37F8222460897099CA8
:104B4000079F4FF0100B05E008F10808103D102DED
:104B500040F3708201361032072EC8E9009BCDE980
:104B60002962F1DD28AA3946204603F08DFE00288F
:104B70007FF4D6AADDE929620DF1AC08E6E70799D2
:104B8000099828AA03F080FE00287FF4C9AA2A9C6D
:104B90000DF1AC08FFF73ABB17F0100372D117F014
:104BA000400200F0BD820E9A52F8044B0E929946D4
:104BB000A4B228E453F8044B0E93FB0656D47D06AA
:104BC00051D544F3C0394B4624B2FFF7C1BB1BF0AB
:104BD000100340F036811BF0400200F092820E9AE2
:104BE00052F8044B0E929946A4B201230EE42D23F1
:104BF00064428DF8833069EB4909BB46012308E420
:104C0000F8077FF515AB25E59AF800600E93FFF7DE
:104C1000B5B9299B1A4AC8F8002001330134012292
:104C2000072B2A942993C8F8042000F3708408F114
:104C30000808002940F01E82129A07F0010313436E
:104C40003FF4F6AA169B1799E218C8E90013299BAE
:104C50002A920133072B299300F3618308F1080896
:104C600019E254ADA9E4B80500F1B4824FEAE47941
:104C70004B46FFF76DBB00BFD49D0008E49D0008C4
:104C8000D09D00080E9B53F8044B0E93FFF7BBBB5F
:104C9000DDE9140102460B46FCF702FA002840F059
:104CA000A085612E00F05085412E00F09982089B6E
:104CB000013326F02003069300F08F85472B00F088
:104CC0007985DDE9141247F480730F931346002BA6
:104CD000C0F2ED850C9300231D938B460D93069B2C
:104CE000462B00F04A84452B00F04F85089901912E
:104CF00026A9049123A9039122A9029102210C9BC8
:104D0000099800915A4600F083FF069B472B054601
:104D100040F01C8617F0010FB9460F9F40F0D98470
:104D2000269B5B1B1293069B472B00F01883069B68
:104D3000462B00F05F84229B1093109B069A013B48
:104D4000412A229300F0AA85F2B20021002BB8BFBD
:104D5000109B8DF89020BABFC3F101032D222B22A6
:104D6000092B8DF8912040F363850DF19F04BD4F11
:104D70002246104687FB0321DA17C2EBA10202EBA1
:104D80008201A3EB4101303100F8011C194663296F
:104D9000134600F1FF32ECDC3033D9B2831E9C4263
:104DA00002F8011C40F2CE8513460DF1920201E09B
:104DB00013F8011B02F8011B9C42F9D10DF1A1036C
:104DC0000DF192021B1A134424AA9B1A1A93129BE8
:104DD0001A9A012B1A440C9240F372850C9B169A76
:104DE00013440C930C9A002329F4806722EAE272A0
:104DF00047F480770F930692139310931D9B002B1B
:104E000040F0DE829DF883200893FFF777BA0E9B6F
:104E10000B9853F8041B0E93C217C1E900025546C4
:104E2000FFF724BA199B002B3FF42FA9199B1B787D
:104E3000002B3FF42AA99AF8006047F48067FFF737
:104E40009DB80E9B53F8044B0E930123FFF7DEBA77
:104E5000854B189317F0200949D00E9B073323F098
:104E60000703D3F8049053F8084B0E93F80709D5BD
:104E700054EA090306D030238DF8856047F0020715
:104E80008DF8843027F4806B0223FFF7BFBABB464E
:104E9000FFF723BB754B1893DCE70799099828AAFD
:104EA00003F0F2FC00287FF43BA92A9C0DF1AC082A
:104EB000FFF7A4B90799099828AA03F0E5FC002890
:104EC0007FF42EA92A9C0DF1AC08FFF7D1BB062B6D
:104ED000294628BF062308950D952A460693644D5A
:104EE0000E940C930F9113911091FFF707BA17F0DE
:104EF000100369D00E9B53F8044B0E93B6E7079945
:104F0000099828AA03F0C0FC00287FF409A9DDE96C
:104F100029640DF1AC0878E40799099828AA03F0F0
:104F2000B3FC00287FF4FCA8DDE929640DF1AC088E
:104F300078E40BF480630022CDE90CA80696DDF836
:104F4000648054AF16469A460CE00023204649463A
:104F50000A22FBF755F90A2C79F100031BD304460A
:104F600089462F4620460A2200234946FBF748F986
:104F700030327D1E013607F8012CBAF1000FE4D063
:104F800098F800309E42E0D1FF2EDED00A2C79F155
:104F9000000380F0F480CDF864801296DDE90CA85F
:104FA000069EFFF706BB079909981D9328AA03F0F0
:104FB0006BFC00287FF4B4A89DF883202A9C1D9BDD
:104FC0000DF1AC08FFF7F1B817F0400200F0B68021
:104FD0000E9A52F8044B0E929946A4B246E70799EE
:104FE000099828AA03F050FC00287FF499A82A9C6D
:104FF0000DF1AC08FFF729BB14463A464F469146DF
:1050000001332C44072BC8F80090C8F80450CDE9B0
:1050100029347FF70BA92BE4012BBB467FF4B8AAF8
:105020007BE40E9B0B9953F8042B554611600E93AD
:10503000FFF71CB9089F144601362C44072ECDE912
:105040002964C8F80090C8F804507FF702AC5DE509
:105050002846CDF820900E94FBF772FA03460C9088
:10506000FFF7B4B967666666A09D0008B49D0008A6
:10507000C89D0008169B1798E218C8E90003299BF1
:105080002A920133072B299300F3498108F108087C
:105090000029C0F2FA821299C8F8005001338C1826
:1050A000072BCDE92934C8F804107FF7BFA8FFF714
:1050B000DFBB102E299BDFF8C09252DD48464246E6
:1050C0002146A846B946099C079D4FF0100B07469C
:1050D00003E00832103E102E3DDD01331031072B66
:1050E000C2E9007BCDE92931F3DD28AA2946204613
:1050F00003F0CAFB00287FF413A8DDE929312BAAAD
:10510000E8E70E9B1BF4007914BF53F8044B53F8E7
:10511000044B0E931CBF9146E4B20123FFF776B90E
:105120000E9B17F4007914BF53F8044B53F8044B4B
:105130000E931CBF9146E4B2FFF765B90E9B17F4BE
:10514000007914BF53F8044B53F8044B0E931CBF63
:105150009146E4B28AE6454690463A460C464F46AA
:10516000914601333444072BCDE92934C8F8009027
:10517000C8F8046000F3E68008F1080853E41C9BBB
:105180001B99ED1A1A46284603F010FB98F80130D7
:105190000BB108F10108204649460A2200230026E7
:1051A000FBF72EF8DBE62D228DF88320FFF796B86B
:1051B000129AAE18A6EB0B06D51AAE42A8BF2E4621
:1051C00064E40E9B0B9953F8042B0E931180554603
:1051D000FFF74CB844F3C0194B4664B2FFF7B8B8B8
:1051E00030238DF8843058238DF88530089B632B4D
:1051F00047F0020400F39B8200230D933BADDDE9F1
:10520000141247F481730F931346002B2746C0F204
:1052100020820C9326F02003069300238B461D93D7
:10522000612E00F0ED82412E7FF459AD22AA0C9937
:10523000584603F02BFA00224FF07F53FBF796FC01
:1052400002460B46CDE9102300220023FBF7F6FEB1
:1052500008B101232293494B0C93089BCDE912A678
:10526000CDE91E78DDF830A0DDE9106703F1FF39E4
:10527000AB46109506E00022002309F1FF39FBF749
:10528000DDFEE8B93E4B002230463946FBF76EFCA6
:105290000F460646FBF71AFF0446FBF7FDFB0B46DD
:1052A000024639463046FBF7A9FA1AF80430B9F13C
:1052B000FF3FD8464D460BF8013B06460F46DAD174
:1052C000304639462F4BDDF848A0139ECDF8488074
:1052D0000022A946DDF87C80109D1E9FCDE91001BB
:1052E000FBF7D4FE002840F03482DDE91001254BA5
:1052F0000022FBF7A3FE10B1E10700F12A824B4622
:10530000002B06DB01335B4430220BF8012B5B459D
:10531000FBD1ABEB0503B94612930F9F03E5079949
:10532000099828AA03F0B0FA00287EF4F9AEDDE966
:10533000293222990DF1AC08AAE6906D02F02EF800
:10534000FEF7C0BE0799099828AA03F09DFA002825
:105350007EF4E6AE2A9C0DF1AC08FFF764BB229BFD
:105360001093DA1C02DB089A93420DDD023E26F010
:1053700020030693E1E400BFE49D0008B49D00080B
:10538000000030400000E03F109B129A9342C0F2B0
:10539000568119F0010F00F08782169A13440C937E
:1053A00019F4806F03D0109B002B00F350820C9BEC
:1053B00023EAE3730693672600230F9313931DE5F7
:1053C0002D2200238DF883200893FEF79ABF129BAD
:1053D000CDF830A04246DDF84C801097EB180893CA
:1053E0005E46199FDDF87090DDF824A0DDF81CB052
:1053F0000F9B13952146B8F1000F2ED0002B6BD1D7
:10540000013F08F1FF381B9BC2E90039299B01339A
:105410004944072B2A91299362DC0832089B38788B
:105420009B1B8342A8BF0346002B1C460ADD29981C
:10543000013019440728C2E900632A9129905ADCF7
:1054400038780832002CACBF051B0546002D15DC52
:1054500006440F9BB8F1000FD0D1002B3CD1DDE901
:105460001235EB189E421997B346DDF830A0109F15
:1054700090460C4628BF9B46FFF7DBBA102D2998B3
:105480001DDD102404E0103D102D02F1080216DD90
:105490000130AC4B10310728C2E90034CDE92901B5
:1054A000F1DD28AA5946504603F0EEF900287EF4B3
:1054B00037AE103D102DDDE929012BAAE8DC0130C3
:1054C000A04B556029440728CDE9290113602CDC45
:1054D000387808320644BCE70F9B013B0F9392E7F4
:1054E00028AA5946504603F0CFF900287EF418AE9A
:1054F0002A992BAA92E728AA5946504603F0C4F9E4
:1055000000287EF40DAE38782A992BAA9AE70799DD
:10551000099828AA03F0B8F900287EF401AE229970
:105520002A9C0DF1AC08FFF784BB28AA59465046C7
:1055300003F0AAF900287EF4F3AD38782A992BAA53
:10554000064486E70799099828AA03F09DF90028E0
:105550007EF4E6AD2A9C0DF1AC08FFF75BBA079923
:10556000099828AA03F090F900287EF4D9AD229B6F
:105570002A9C0DF1AC08FFF771BA0899019126A990
:10558000049123A9039122A9029103210C9B09985C
:1055900000915A4600F03CFB0378302B054600F0A2
:1055A0009581229B089AB94613440F9FEC180C99D9
:1055B000584600220023FBF741FD10B12346FFF7B8
:1055C000B0BB269BA342BFF4ACAB30215A1C269241
:1055D0001970269B9C42F9D8FFF7A3BB089B9DF846
:1055E00083200E9406930C9308900F9013901090C4
:1055F000FEF784BE229A1092002A40F38181089916
:1056000009F001030B4340F05581109B0C93662673
:1056100019F4806F40F01C810C9B23EAE37306931E
:10562000CAE60799099828AA03F02EF900283EF443
:1056300025AEFEF77BBD00230893FEF7A1BC129BAD
:10564000169A9A18109B0C92002B40F34D816726F6
:10565000DEE726F020030693DDE914349B4604F1CF
:1056600000430C932D231D93DAE50799099828AA86
:1056700003F00AF900287EF453AD229D129B2A9C68
:105680005D1B0DF1AC08FFF701BA4E421031DFF897
:10569000B49034DA4146DDF824B0A8461024079DC2
:1056A00003E00831103E102E27DD01331032072BA6
:1056B000C1E90094CDE92932F3DD28AA29465846EC
:1056C00003F0E2F800287EF42BADDDE929322BA9A6
:1056D000E8E7089BEC186AE7079B5B6EDD0707D4D9
:1056E000079B9B899C0503D4079B986D01F056FE90
:1056F0004FF0FF330B93FEF722BD4546884601333A
:105700003244072BCDE92932C8F80090C8F804606C
:105710007FF7A4AA0799099828AA03F0B5F80028EA
:105720007EF4FEACDDE929320DF1AC08B3E4099852
:10573000591C01F0DDFE0546002800F00D810D909A
:105740005DE500BFE49D000830238DF884307823A8
:105750004AE5129B26930C9B1BF8012CD97B8A42AD
:105760005B4609D1302003F8010C269B5A1E269275
:1057700013F8012C9142F6D0392A0BBF0C9A013252
:10578000927AD2B203F8012CC3E508990C9B0998D0
:105790004C1C26A9049123A9039122A9029102215C
:1057A0005A460194009100F033FA0546B9462C445C
:1057B0000F9FFCE6089B002B08BF0123089347F4CA
:1057C00080730F93159B002BC0F2AE80DDF850B0B4
:1057D0001D900C930D90FFF789BA06230893FFF7ED
:1057E00070BA159B604D002BB4BF2D229DF883200D
:1057F0005E4BB8BF8DF8832027F08007FEF772BD9F
:1058000022AA0C99584602F041FF00224FF07F5324
:10581000FBF7ACF902460B46CDE91023002200232A
:10582000FBF70CFC08B101232293514B0C9314E5B8
:10583000002962D130228DF892200DF1930230338D
:1058400002F8013B24ABD31A1A93FFF7C0BA6726BC
:1058500019990B78FF2B7BD00024109A204603E087
:1058600001300131FF2B08D0934206DAD21A4B786F
:10587000002BF5D10B780134F4E7199110921390B5
:105880000F940F9A139B1C9913440C9A01FB03234A
:105890000C9323EAE3730693FFF7B0BA06F10F0205
:1058A000D2B20121FFF752BA109B0C9378E5002386
:1058B0000D93D1E6169BD31819440C916626A7E6E2
:1058C00019F0010F3FF48EAAFFF788BA0C995846D9
:1058D00000220023FBF7B2FB00287FF462AE089B96
:1058E000C3F1010322935DE6C3F101031A4422EAE6
:1058F000E2730C92069367265EE50DF192029EE735
:10590000089A09F0010959EA020304D10123069318
:1059100066260C9350E5169B01331A4422EAE27383
:105920000C920693662647E50D9095E60E9B9AF835
:105930000160924653F8042B0E9342EAE2720892F9
:10594000FEF71CBB02231A93FFF741BA089C2DE710
:1059500000230F93139394E7079A938943F040032E
:105960009381FEF7E3BB00BF989D00089C9D000853
:10597000A09D0008F0B51F468B89ADF26C4D23F059
:105980000203ADF80C304B6E1993CB89ADF80E3095
:10599000CB6907934B6A09931AAB009304934FF4B6
:1059A0008063154606460293059316A800230C460D
:1059B000069301F0EDFC2A463B4669463046FEF769
:1059C0006FFA051E07DB6946304601F013F900281F
:1059D00018BF4FF0FF35BDF80C305B0603D5A38927
:1059E00043F04003A381169801F0D4FC28460DF241
:1059F0006C4DF0BD38B5334B1B6805460C460BB1FA
:105A00009A6B12B3B4F90C3018079AB225D52169F4
:105A100000292DD012F0010007D00020A06060699D
:105A20004042A06139B1002038BD950758BF606978
:105A3000A0600029F7D1120658BF0846F4D543F0FC
:105A40004003A3814FF0FF3038BD184601F006F93E
:105A5000B4F90C3018079AB2D9D4D1062AD5520716
:105A600014D4216943F00803A3819AB20029D1D14B
:105A700002F42070B0F5007FCCD02146284601F01A
:105A80008FFCB4F90C3021699AB2C3E7216B51B194
:105A900004F14002914204D0284601F0D7F9B4F94C
:105AA0000C300022226321690022C4E9001223F095
:105AB0002403D7E7092243F040032A604FF0FF3068
:105AC000A38138BD0C000020024B13B1024800F046
:105AD00005B8704700000000816D000800230146F2
:105AE0001A46184603F000BE2DE9F04F03690C6911
